{
  "address": "0x08f98Af60eb83C18184231591A8F89577E46A4B9",
  "abi": [
    {
      "anonymous": false,
      "inputs": [
        {
          "indexed": true,
          "internalType": "address",
          "name": "owner",
          "type": "address"
        },
        {
          "indexed": true,
          "internalType": "address",
          "name": "spender",
          "type": "address"
        },
        {
          "indexed": false,
          "internalType": "uint256",
          "name": "value",
          "type": "uint256"
        }
      ],
      "name": "Approval",
      "type": "event"
    },
    {
      "anonymous": false,
      "inputs": [
        {
          "indexed": true,
          "internalType": "bytes32",
          "name": "role",
          "type": "bytes32"
        },
        {
          "indexed": true,
          "internalType": "bytes32",
          "name": "previousAdminRole",
          "type": "bytes32"
        },
        {
          "indexed": true,
          "internalType": "bytes32",
          "name": "newAdminRole",
          "type": "bytes32"
        }
      ],
      "name": "RoleAdminChanged",
      "type": "event"
    },
    {
      "anonymous": false,
      "inputs": [
        {
          "indexed": true,
          "internalType": "bytes32",
          "name": "role",
          "type": "bytes32"
        },
        {
          "indexed": true,
          "internalType": "address",
          "name": "account",
          "type": "address"
        },
        {
          "indexed": true,
          "internalType": "address",
          "name": "sender",
          "type": "address"
        }
      ],
      "name": "RoleGranted",
      "type": "event"
    },
    {
      "anonymous": false,
      "inputs": [
        {
          "indexed": true,
          "internalType": "bytes32",
          "name": "role",
          "type": "bytes32"
        },
        {
          "indexed": true,
          "internalType": "address",
          "name": "account",
          "type": "address"
        },
        {
          "indexed": true,
          "internalType": "address",
          "name": "sender",
          "type": "address"
        }
      ],
      "name": "RoleRevoked",
      "type": "event"
    },
    {
      "anonymous": false,
      "inputs": [
        {
          "indexed": true,
          "internalType": "address",
          "name": "from",
          "type": "address"
        },
        {
          "indexed": true,
          "internalType": "address",
          "name": "to",
          "type": "address"
        },
        {
          "indexed": false,
          "internalType": "uint256",
          "name": "value",
          "type": "uint256"
        }
      ],
      "name": "Transfer",
      "type": "event"
    },
    {
      "inputs": [],
      "name": "DEFAULT_ADMIN_ROLE",
      "outputs": [
        {
          "internalType": "bytes32",
          "name": "",
          "type": "bytes32"
        }
      ],
      "stateMutability": "view",
      "type": "function"
    },
    {
      "inputs": [
        {
          "internalType": "address",
          "name": "owner",
          "type": "address"
        },
        {
          "internalType": "address",
          "name": "spender",
          "type": "address"
        }
      ],
      "name": "allowance",
      "outputs": [
        {
          "internalType": "uint256",
          "name": "",
          "type": "uint256"
        }
      ],
      "stateMutability": "view",
      "type": "function"
    },
    {
      "inputs": [
        {
          "internalType": "address",
          "name": "spender",
          "type": "address"
        },
        {
          "internalType": "uint256",
          "name": "amount",
          "type": "uint256"
        }
      ],
      "name": "approve",
      "outputs": [
        {
          "internalType": "bool",
          "name": "",
          "type": "bool"
        }
      ],
      "stateMutability": "nonpayable",
      "type": "function"
    },
    {
      "inputs": [
        {
          "internalType": "address",
          "name": "account",
          "type": "address"
        }
      ],
      "name": "balanceOf",
      "outputs": [
        {
          "internalType": "uint256",
          "name": "",
          "type": "uint256"
        }
      ],
      "stateMutability": "view",
      "type": "function"
    },
    {
      "inputs": [
        {
          "internalType": "uint256",
          "name": "amount",
          "type": "uint256"
        }
      ],
      "name": "burn",
      "outputs": [],
      "stateMutability": "nonpayable",
      "type": "function"
    },
    {
      "inputs": [],
      "name": "decimals",
      "outputs": [
        {
          "internalType": "uint8",
          "name": "",
          "type": "uint8"
        }
      ],
      "stateMutability": "view",
      "type": "function"
    },
    {
      "inputs": [
        {
          "internalType": "address",
          "name": "spender",
          "type": "address"
        },
        {
          "internalType": "uint256",
          "name": "subtractedValue",
          "type": "uint256"
        }
      ],
      "name": "decreaseAllowance",
      "outputs": [
        {
          "internalType": "bool",
          "name": "",
          "type": "bool"
        }
      ],
      "stateMutability": "nonpayable",
      "type": "function"
    },
    {
      "inputs": [
        {
          "internalType": "bytes32",
          "name": "role",
          "type": "bytes32"
        }
      ],
      "name": "getRoleAdmin",
      "outputs": [
        {
          "internalType": "bytes32",
          "name": "",
          "type": "bytes32"
        }
      ],
      "stateMutability": "view",
      "type": "function"
    },
    {
      "inputs": [
        {
          "internalType": "bytes32",
          "name": "role",
          "type": "bytes32"
        },
        {
          "internalType": "address",
          "name": "account",
          "type": "address"
        }
      ],
      "name": "grantRole",
      "outputs": [],
      "stateMutability": "nonpayable",
      "type": "function"
    },
    {
      "inputs": [
        {
          "internalType": "bytes32",
          "name": "role",
          "type": "bytes32"
        },
        {
          "internalType": "address",
          "name": "account",
          "type": "address"
        }
      ],
      "name": "hasRole",
      "outputs": [
        {
          "internalType": "bool",
          "name": "",
          "type": "bool"
        }
      ],
      "stateMutability": "view",
      "type": "function"
    },
    {
      "inputs": [
        {
          "internalType": "address",
          "name": "spender",
          "type": "address"
        },
        {
          "internalType": "uint256",
          "name": "addedValue",
          "type": "uint256"
        }
      ],
      "name": "increaseAllowance",
      "outputs": [
        {
          "internalType": "bool",
          "name": "",
          "type": "bool"
        }
      ],
      "stateMutability": "nonpayable",
      "type": "function"
    },
    {
      "inputs": [
        {
          "internalType": "address",
          "name": "to",
          "type": "address"
        },
        {
          "internalType": "uint256",
          "name": "amount",
          "type": "uint256"
        }
      ],
      "name": "mint",
      "outputs": [],
      "stateMutability": "nonpayable",
      "type": "function"
    },
    {
      "inputs": [],
      "name": "name",
      "outputs": [
        {
          "internalType": "string",
          "name": "",
          "type": "string"
        }
      ],
      "stateMutability": "view",
      "type": "function"
    },
    {
      "inputs": [
        {
          "internalType": "bytes32",
          "name": "role",
          "type": "bytes32"
        },
        {
          "internalType": "address",
          "name": "account",
          "type": "address"
        }
      ],
      "name": "renounceRole",
      "outputs": [],
      "stateMutability": "nonpayable",
      "type": "function"
    },
    {
      "inputs": [
        {
          "internalType": "bytes32",
          "name": "role",
          "type": "bytes32"
        },
        {
          "internalType": "address",
          "name": "account",
          "type": "address"
        }
      ],
      "name": "revokeRole",
      "outputs": [],
      "stateMutability": "nonpayable",
      "type": "function"
    },
    {
      "inputs": [
        {
          "internalType": "bytes4",
          "name": "interfaceId",
          "type": "bytes4"
        }
      ],
      "name": "supportsInterface",
      "outputs": [
        {
          "internalType": "bool",
          "name": "",
          "type": "bool"
        }
      ],
      "stateMutability": "view",
      "type": "function"
    },
    {
      "inputs": [],
      "name": "symbol",
      "outputs": [
        {
          "internalType": "string",
          "name": "",
          "type": "string"
        }
      ],
      "stateMutability": "view",
      "type": "function"
    },
    {
      "inputs": [],
      "name": "totalSupply",
      "outputs": [
        {
          "internalType": "uint256",
          "name": "",
          "type": "uint256"
        }
      ],
      "stateMutability": "view",
      "type": "function"
    },
    {
      "inputs": [
        {
          "internalType": "address",
          "name": "to",
          "type": "address"
        },
        {
          "internalType": "uint256",
          "name": "amount",
          "type": "uint256"
        }
      ],
      "name": "transfer",
      "outputs": [
        {
          "internalType": "bool",
          "name": "",
          "type": "bool"
        }
      ],
      "stateMutability": "nonpayable",
      "type": "function"
    },
    {
      "inputs": [
        {
          "internalType": "address",
          "name": "from",
          "type": "address"
        },
        {
          "internalType": "address",
          "name": "to",
          "type": "address"
        },
        {
          "internalType": "uint256",
          "name": "amount",
          "type": "uint256"
        }
      ],
      "name": "transferFrom",
      "outputs": [
        {
          "internalType": "bool",
          "name": "",
          "type": "bool"
        }
      ],
      "stateMutability": "nonpayable",
      "type": "function"
    }
  ],
  "transactionHash": "0xcf3375a6b7c30a17d43001b3c7d75eed118f65d3646e74dad4f3c1e9d05d6b29",
  "args": [],
  "numDeployments": 1,
  "solcInputHash": "09aac17b58f15dfaa2607afeeed4b7d1",
  "bytecode": "0x60806040523480156200001157600080fd5b506040518060400160405280601081526020017f5772617070656420457468657265756d000000000000000000000000000000008152506040518060400160405280600481526020017f774554480000000000000000000000000000000000000000000000000000000081525081818160039081620000919190620004b8565b508060049081620000a39190620004b8565b505050620000bb6000801b33620000c360201b60201c565b50506200059f565b620000d58282620000d960201b60201c565b5050565b620000eb8282620001cb60201b60201c565b620001c75760016005600084815260200190815260200160002060000160008373ffffffffffffffffffffffffffffffffffffffff1673ffffffffffffffffffffffffffffffffffffffff16815260200190815260200160002060006101000a81548160ff0219169083151502179055506200016c6200023660201b60201c565b73ffffffffffffffffffffffffffffffffffffffff168173ffffffffffffffffffffffffffffffffffffffff16837f2f8788117e7eff1d82e926ec794901d17c78024a50270940304540a733656f0d60405160405180910390a45b5050565b60006005600084815260200190815260200160002060000160008373ffffffffffffffffffffffffffffffffffffffff1673ffffffffffffffffffffffffffffffffffffffff16815260200190815260200160002060009054906101000a900460ff16905092915050565b600033905090565b600081519050919050565b7f4e487b7100000000000000000000000000000000000000000000000000000000600052604160045260246000fd5b7f4e487b7100000000000000000000000000000000000000000000000000000000600052602260045260246000fd5b60006002820490506001821680620002c057607f821691505b602082108103620002d657620002d562000278565b5b50919050565b60008190508160005260206000209050919050565b60006020601f8301049050919050565b600082821b905092915050565b600060088302620003407fffffffffffffffffffffffffffffffffffffffffffffffffffffffffffffffff8262000301565b6200034c868362000301565b95508019841693508086168417925050509392505050565b6000819050919050565b6000819050919050565b600062000399620003936200038d8462000364565b6200036e565b62000364565b9050919050565b6000819050919050565b620003b58362000378565b620003cd620003c482620003a0565b8484546200030e565b825550505050565b600090565b620003e4620003d5565b620003f1818484620003aa565b505050565b5b8181101562000419576200040d600082620003da565b600181019050620003f7565b5050565b601f82111562000468576200043281620002dc565b6200043d84620002f1565b810160208510156200044d578190505b620004656200045c85620002f1565b830182620003f6565b50505b505050565b600082821c905092915050565b60006200048d600019846008026200046d565b1980831691505092915050565b6000620004a883836200047a565b9150826002028217905092915050565b620004c3826200023e565b67ffffffffffffffff811115620004df57620004de62000249565b5b620004eb8254620002a7565b620004f88282856200041d565b600060209050601f8311600181146200053057600084156200051b578287015190505b6200052785826200049a565b86555062000597565b601f1984166200054086620002dc565b60005b828110156200056a5784890151825560018201915060208501945060208101905062000543565b868310156200058a578489015162000586601f8916826200047a565b8355505b6001600288020188555050505b505050505050565b61244880620005af6000396000f3fe608060405234801561001057600080fd5b506004361061012c5760003560e01c806340c10f19116100ad578063a217fddf11610071578063a217fddf14610369578063a457c2d714610387578063a9059cbb146103b7578063d547741f146103e7578063dd62ed3e146104035761012c565b806340c10f19146102b357806342966c68146102cf57806370a08231146102eb57806391d148541461031b57806395d89b411461034b5761012c565b8063248a9ca3116100f4578063248a9ca3146101fd5780632f2ff15d1461022d578063313ce5671461024957806336568abe1461026757806339509351146102835761012c565b806301ffc9a71461013157806306fdde0314610161578063095ea7b31461017f57806318160ddd146101af57806323b872dd146101cd575b600080fd5b61014b600480360381019061014691906116da565b610433565b6040516101589190611722565b60405180910390f35b6101696104ad565b60405161017691906117cd565b60405180910390f35b61019960048036038101906101949190611883565b61053f565b6040516101a69190611722565b60405180910390f35b6101b7610562565b6040516101c491906118d2565b60405180910390f35b6101e760048036038101906101e291906118ed565b61056c565b6040516101f49190611722565b60405180910390f35b61021760048036038101906102129190611976565b61059b565b60405161022491906119b2565b60405180910390f35b610247600480360381019061024291906119cd565b6105bb565b005b6102516105dc565b60405161025e9190611a29565b60405180910390f35b610281600480360381019061027c91906119cd565b6105e5565b005b61029d60048036038101906102989190611883565b610668565b6040516102aa9190611722565b60405180910390f35b6102cd60048036038101906102c89190611883565b61069f565b005b6102e960048036038101906102e49190611a44565b6106ad565b005b61030560048036038101906103009190611a71565b6106ba565b60405161031291906118d2565b60405180910390f35b610335600480360381019061033091906119cd565b610702565b6040516103429190611722565b60405180910390f35b61035361076d565b60405161036091906117cd565b60405180910390f35b6103716107ff565b60405161037e91906119b2565b60405180910390f35b6103a1600480360381019061039c9190611883565b610806565b6040516103ae9190611722565b60405180910390f35b6103d160048036038101906103cc9190611883565b61087d565b6040516103de9190611722565b60405180910390f35b61040160048036038101906103fc91906119cd565b6108a0565b005b61041d60048036038101906104189190611a9e565b6108c1565b60405161042a91906118d2565b60405180910390f35b60007f7965db0b000000000000000000000000000000000000000000000000000000007bffffffffffffffffffffffffffffffffffffffffffffffffffffffff1916827bffffffffffffffffffffffffffffffffffffffffffffffffffffffff191614806104a657506104a582610948565b5b9050919050565b6060600380546104bc90611b0d565b80601f01602080910402602001604051908101604052809291908181526020018280546104e890611b0d565b80156105355780601f1061050a57610100808354040283529160200191610535565b820191906000526020600020905b81548152906001019060200180831161051857829003601f168201915b5050505050905090565b60008061054a6109b2565b90506105578185856109ba565b600191505092915050565b6000600254905090565b6000806105776109b2565b9050610584858285610b83565b61058f858585610c0f565b60019150509392505050565b600060056000838152602001908152602001600020600101549050919050565b6105c48261059b565b6105cd81610e8e565b6105d78383610ea2565b505050565b60006012905090565b6105ed6109b2565b73ffffffffffffffffffffffffffffffffffffffff168173ffffffffffffffffffffffffffffffffffffffff161461065a576040517f08c379a000000000000000000000000000000000000000000000000000000000815260040161065190611bb0565b60405180910390fd5b6106648282610f83565b5050565b6000806106736109b2565b905061069481858561068585896108c1565b61068f9190611bff565b6109ba565b600191505092915050565b6106a98282611065565b5050565b6106b733826111c4565b50565b60008060008373ffffffffffffffffffffffffffffffffffffffff1673ffffffffffffffffffffffffffffffffffffffff168152602001908152602001600020549050919050565b60006005600084815260200190815260200160002060000160008373ffffffffffffffffffffffffffffffffffffffff1673ffffffffffffffffffffffffffffffffffffffff16815260200190815260200160002060009054906101000a900460ff16905092915050565b60606004805461077c90611b0d565b80601f01602080910402602001604051908101604052809291908181526020018280546107a890611b0d565b80156107f55780601f106107ca576101008083540402835291602001916107f5565b820191906000526020600020905b8154815290600101906020018083116107d857829003601f168201915b5050505050905090565b6000801b81565b6000806108116109b2565b9050600061081f82866108c1565b905083811015610864576040517f08c379a000000000000000000000000000000000000000000000000000000000815260040161085b90611ca5565b60405180910390fd5b61087182868684036109ba565b60019250505092915050565b6000806108886109b2565b9050610895818585610c0f565b600191505092915050565b6108a98261059b565b6108b281610e8e565b6108bc8383610f83565b505050565b6000600160008473ffffffffffffffffffffffffffffffffffffffff1673ffffffffffffffffffffffffffffffffffffffff16815260200190815260200160002060008373ffffffffffffffffffffffffffffffffffffffff1673ffffffffffffffffffffffffffffffffffffffff16815260200190815260200160002054905092915050565b60007f01ffc9a7000000000000000000000000000000000000000000000000000000007bffffffffffffffffffffffffffffffffffffffffffffffffffffffff1916827bffffffffffffffffffffffffffffffffffffffffffffffffffffffff1916149050919050565b600033905090565b600073ffffffffffffffffffffffffffffffffffffffff168373ffffffffffffffffffffffffffffffffffffffff1603610a29576040517f08c379a0000000000000000000000000000000000000000000000000000000008152600401610a2090611d37565b60405180910390fd5b600073ffffffffffffffffffffffffffffffffffffffff168273ffffffffffffffffffffffffffffffffffffffff1603610a98576040517f08c379a0000000000000000000000000000000000000000000000000000000008152600401610a8f90611dc9565b60405180910390fd5b80600160008573ffffffffffffffffffffffffffffffffffffffff1673ffffffffffffffffffffffffffffffffffffffff16815260200190815260200160002060008473ffffffffffffffffffffffffffffffffffffffff1673ffffffffffffffffffffffffffffffffffffffff168152602001908152602001600020819055508173ffffffffffffffffffffffffffffffffffffffff168373ffffffffffffffffffffffffffffffffffffffff167f8c5be1e5ebec7d5bd14f71427d1e84f3dd0314c0f7b2291e5b200ac8c7c3b92583604051610b7691906118d2565b60405180910390a3505050565b6000610b8f84846108c1565b90507fffffffffffffffffffffffffffffffffffffffffffffffffffffffffffffffff8114610c095781811015610bfb576040517f08c379a0000000000000000000000000000000000000000000000000000000008152600401610bf290611e35565b60405180910390fd5b610c0884848484036109ba565b5b50505050565b600073ffffffffffffffffffffffffffffffffffffffff168373ffffffffffffffffffffffffffffffffffffffff1603610c7e576040517f08c379a0000000000000000000000000000000000000000000000000000000008152600401610c7590611ec7565b60405180910390fd5b600073ffffffffffffffffffffffffffffffffffffffff168273ffffffffffffffffffffffffffffffffffffffff1603610ced576040517f08c379a0000000000000000000000000000000000000000000000000000000008152600401610ce490611f59565b60405180910390fd5b610cf883838361139a565b60008060008573ffffffffffffffffffffffffffffffffffffffff1673ffffffffffffffffffffffffffffffffffffffff16815260200190815260200160002054905081811015610d7e576040517f08c379a0000000000000000000000000000000000000000000000000000000008152600401610d7590611feb565b60405180910390fd5b8181036000808673ffffffffffffffffffffffffffffffffffffffff1673ffffffffffffffffffffffffffffffffffffffff16815260200190815260200160002081905550816000808573ffffffffffffffffffffffffffffffffffffffff1673ffffffffffffffffffffffffffffffffffffffff1681526020019081526020016000206000828254610e119190611bff565b925050819055508273ffffffffffffffffffffffffffffffffffffffff168473ffffffffffffffffffffffffffffffffffffffff167fddf252ad1be2c89b69c2b068fc378daa952ba7f163c4a11628f55a4df523b3ef84604051610e7591906118d2565b60405180910390a3610e8884848461139f565b50505050565b610e9f81610e9a6109b2565b6113a4565b50565b610eac8282610702565b610f7f5760016005600084815260200190815260200160002060000160008373ffffffffffffffffffffffffffffffffffffffff1673ffffffffffffffffffffffffffffffffffffffff16815260200190815260200160002060006101000a81548160ff021916908315150217905550610f246109b2565b73ffffffffffffffffffffffffffffffffffffffff168173ffffffffffffffffffffffffffffffffffffffff16837f2f8788117e7eff1d82e926ec794901d17c78024a50270940304540a733656f0d60405160405180910390a45b5050565b610f8d8282610702565b156110615760006005600084815260200190815260200160002060000160008373ffffffffffffffffffffffffffffffffffffffff1673ffffffffffffffffffffffffffffffffffffffff16815260200190815260200160002060006101000a81548160ff0219169083151502179055506110066109b2565b73ffffffffffffffffffffffffffffffffffffffff168173ffffffffffffffffffffffffffffffffffffffff16837ff6391f5c32d9c69d2a47ea670b442974b53935d1edc7fd64eb21e047a839171b60405160405180910390a45b5050565b600073ffffffffffffffffffffffffffffffffffffffff168273ffffffffffffffffffffffffffffffffffffffff16036110d4576040517f08c379a00000000000000000000000000000000000000000000000000000000081526004016110cb90612057565b60405180910390fd5b6110e06000838361139a565b80600260008282546110f29190611bff565b92505081905550806000808473ffffffffffffffffffffffffffffffffffffffff1673ffffffffffffffffffffffffffffffffffffffff16815260200190815260200160002060008282546111479190611bff565b925050819055508173ffffffffffffffffffffffffffffffffffffffff16600073ffffffffffffffffffffffffffffffffffffffff167fddf252ad1be2c89b69c2b068fc378daa952ba7f163c4a11628f55a4df523b3ef836040516111ac91906118d2565b60405180910390a36111c06000838361139f565b5050565b600073ffffffffffffffffffffffffffffffffffffffff168273ffffffffffffffffffffffffffffffffffffffff1603611233576040517f08c379a000000000000000000000000000000000000000000000000000000000815260040161122a906120e9565b60405180910390fd5b61123f8260008361139a565b60008060008473ffffffffffffffffffffffffffffffffffffffff1673ffffffffffffffffffffffffffffffffffffffff168152602001908152602001600020549050818110156112c5576040517f08c379a00000000000000000000000000000000000000000000000000000000081526004016112bc9061217b565b60405180910390fd5b8181036000808573ffffffffffffffffffffffffffffffffffffffff1673ffffffffffffffffffffffffffffffffffffffff16815260200190815260200160002081905550816002600082825461131c919061219b565b92505081905550600073ffffffffffffffffffffffffffffffffffffffff168373ffffffffffffffffffffffffffffffffffffffff167fddf252ad1be2c89b69c2b068fc378daa952ba7f163c4a11628f55a4df523b3ef8460405161138191906118d2565b60405180910390a36113958360008461139f565b505050565b505050565b505050565b6113ae8282610702565b61143d576113d38173ffffffffffffffffffffffffffffffffffffffff166014611441565b6113e18360001c6020611441565b6040516020016113f29291906122a3565b6040516020818303038152906040526040517f08c379a000000000000000000000000000000000000000000000000000000000815260040161143491906117cd565b60405180910390fd5b5050565b60606000600283600261145491906122dd565b61145e9190611bff565b67ffffffffffffffff8111156114775761147661231f565b5b6040519080825280601f01601f1916602001820160405280156114a95781602001600182028036833780820191505090505b5090507f3000000000000000000000000000000000000000000000000000000000000000816000815181106114e1576114e061234e565b5b60200101907effffffffffffffffffffffffffffffffffffffffffffffffffffffffffffff1916908160001a9053507f7800000000000000000000000000000000000000000000000000000000000000816001815181106115455761154461234e565b5b60200101907effffffffffffffffffffffffffffffffffffffffffffffffffffffffffffff1916908160001a9053506000600184600261158591906122dd565b61158f9190611bff565b90505b600181111561162f577f3031323334353637383961626364656600000000000000000000000000000000600f8616601081106115d1576115d061234e565b5b1a60f81b8282815181106115e8576115e761234e565b5b60200101907effffffffffffffffffffffffffffffffffffffffffffffffffffffffffffff1916908160001a905350600485901c9450806116289061237d565b9050611592565b5060008414611673576040517f08c379a000000000000000000000000000000000000000000000000000000000815260040161166a906123f2565b60405180910390fd5b8091505092915050565b600080fd5b60007fffffffff0000000000000000000000000000000000000000000000000000000082169050919050565b6116b781611682565b81146116c257600080fd5b50565b6000813590506116d4816116ae565b92915050565b6000602082840312156116f0576116ef61167d565b5b60006116fe848285016116c5565b91505092915050565b60008115159050919050565b61171c81611707565b82525050565b60006020820190506117376000830184611713565b92915050565b600081519050919050565b600082825260208201905092915050565b60005b8381101561177757808201518184015260208101905061175c565b60008484015250505050565b6000601f19601f8301169050919050565b600061179f8261173d565b6117a98185611748565b93506117b9818560208601611759565b6117c281611783565b840191505092915050565b600060208201905081810360008301526117e78184611794565b905092915050565b600073ffffffffffffffffffffffffffffffffffffffff82169050919050565b600061181a826117ef565b9050919050565b61182a8161180f565b811461183557600080fd5b50565b60008135905061184781611821565b92915050565b6000819050919050565b6118608161184d565b811461186b57600080fd5b50565b60008135905061187d81611857565b92915050565b6000806040838503121561189a5761189961167d565b5b60006118a885828601611838565b92505060206118b98582860161186e565b9150509250929050565b6118cc8161184d565b82525050565b60006020820190506118e760008301846118c3565b92915050565b6000806000606084860312156119065761190561167d565b5b600061191486828701611838565b935050602061192586828701611838565b92505060406119368682870161186e565b9150509250925092565b6000819050919050565b61195381611940565b811461195e57600080fd5b50565b6000813590506119708161194a565b92915050565b60006020828403121561198c5761198b61167d565b5b600061199a84828501611961565b91505092915050565b6119ac81611940565b82525050565b60006020820190506119c760008301846119a3565b92915050565b600080604083850312156119e4576119e361167d565b5b60006119f285828601611961565b9250506020611a0385828601611838565b9150509250929050565b600060ff82169050919050565b611a2381611a0d565b82525050565b6000602082019050611a3e6000830184611a1a565b92915050565b600060208284031215611a5a57611a5961167d565b5b6000611a688482850161186e565b91505092915050565b600060208284031215611a8757611a8661167d565b5b6000611a9584828501611838565b91505092915050565b60008060408385031215611ab557611ab461167d565b5b6000611ac385828601611838565b9250506020611ad485828601611838565b9150509250929050565b7f4e487b7100000000000000000000000000000000000000000000000000000000600052602260045260246000fd5b60006002820490506001821680611b2557607f821691505b602082108103611b3857611b37611ade565b5b50919050565b7f416363657373436f6e74726f6c3a2063616e206f6e6c792072656e6f756e636560008201527f20726f6c657320666f722073656c660000000000000000000000000000000000602082015250565b6000611b9a602f83611748565b9150611ba582611b3e565b604082019050919050565b60006020820190508181036000830152611bc981611b8d565b9050919050565b7f4e487b7100000000000000000000000000000000000000000000000000000000600052601160045260246000fd5b6000611c0a8261184d565b9150611c158361184d565b9250828201905080821115611c2d57611c2c611bd0565b5b92915050565b7f45524332303a2064656372656173656420616c6c6f77616e63652062656c6f7760008201527f207a65726f000000000000000000000000000000000000000000000000000000602082015250565b6000611c8f602583611748565b9150611c9a82611c33565b604082019050919050565b60006020820190508181036000830152611cbe81611c82565b9050919050565b7f45524332303a20617070726f76652066726f6d20746865207a65726f2061646460008201527f7265737300000000000000000000000000000000000000000000000000000000602082015250565b6000611d21602483611748565b9150611d2c82611cc5565b604082019050919050565b60006020820190508181036000830152611d5081611d14565b9050919050565b7f45524332303a20617070726f766520746f20746865207a65726f20616464726560008201527f7373000000000000000000000000000000000000000000000000000000000000602082015250565b6000611db3602283611748565b9150611dbe82611d57565b604082019050919050565b60006020820190508181036000830152611de281611da6565b9050919050565b7f45524332303a20696e73756666696369656e7420616c6c6f77616e6365000000600082015250565b6000611e1f601d83611748565b9150611e2a82611de9565b602082019050919050565b60006020820190508181036000830152611e4e81611e12565b9050919050565b7f45524332303a207472616e736665722066726f6d20746865207a65726f20616460008201527f6472657373000000000000000000000000000000000000000000000000000000602082015250565b6000611eb1602583611748565b9150611ebc82611e55565b604082019050919050565b60006020820190508181036000830152611ee081611ea4565b9050919050565b7f45524332303a207472616e7366657220746f20746865207a65726f206164647260008201527f6573730000000000000000000000000000000000000000000000000000000000602082015250565b6000611f43602383611748565b9150611f4e82611ee7565b604082019050919050565b60006020820190508181036000830152611f7281611f36565b9050919050565b7f45524332303a207472616e7366657220616d6f756e742065786365656473206260008201527f616c616e63650000000000000000000000000000000000000000000000000000602082015250565b6000611fd5602683611748565b9150611fe082611f79565b604082019050919050565b6000602082019050818103600083015261200481611fc8565b9050919050565b7f45524332303a206d696e7420746f20746865207a65726f206164647265737300600082015250565b6000612041601f83611748565b915061204c8261200b565b602082019050919050565b6000602082019050818103600083015261207081612034565b9050919050565b7f45524332303a206275726e2066726f6d20746865207a65726f2061646472657360008201527f7300000000000000000000000000000000000000000000000000000000000000602082015250565b60006120d3602183611748565b91506120de82612077565b604082019050919050565b60006020820190508181036000830152612102816120c6565b9050919050565b7f45524332303a206275726e20616d6f756e7420657863656564732062616c616e60008201527f6365000000000000000000000000000000000000000000000000000000000000602082015250565b6000612165602283611748565b915061217082612109565b604082019050919050565b6000602082019050818103600083015261219481612158565b9050919050565b60006121a68261184d565b91506121b18361184d565b92508282039050818111156121c9576121c8611bd0565b5b92915050565b600081905092915050565b7f416363657373436f6e74726f6c3a206163636f756e7420000000000000000000600082015250565b60006122106017836121cf565b915061221b826121da565b601782019050919050565b60006122318261173d565b61223b81856121cf565b935061224b818560208601611759565b80840191505092915050565b7f206973206d697373696e6720726f6c6520000000000000000000000000000000600082015250565b600061228d6011836121cf565b915061229882612257565b601182019050919050565b60006122ae82612203565b91506122ba8285612226565b91506122c582612280565b91506122d18284612226565b91508190509392505050565b60006122e88261184d565b91506122f38361184d565b92508282026123018161184d565b9150828204841483151761231857612317611bd0565b5b5092915050565b7f4e487b7100000000000000000000000000000000000000000000000000000000600052604160045260246000fd5b7f4e487b7100000000000000000000000000000000000000000000000000000000600052603260045260246000fd5b60006123888261184d565b91506000820361239b5761239a611bd0565b5b600182039050919050565b7f537472696e67733a20686578206c656e67746820696e73756666696369656e74600082015250565b60006123dc602083611748565b91506123e7826123a6565b602082019050919050565b6000602082019050818103600083015261240b816123cf565b905091905056fea26469706673582212207ec477e695e186ba9b7fe362617e47f9936c27caa185ef232e9eb5a356bc294264736f6c63430008110033",
  "devdoc": {
    "kind": "dev",
    "methods": {
      "allowance(address,address)": {
        "details": "See {IERC20-allowance}."
      },
      "approve(address,uint256)": {
        "details": "See {IERC20-approve}. NOTE: If `amount` is the maximum `uint256`, the allowance is not updated on `transferFrom`. This is semantically equivalent to an infinite approval. Requirements: - `spender` cannot be the zero address."
      },
      "balanceOf(address)": {
        "details": "See {IERC20-balanceOf}."
      },
      "decimals()": {
        "details": "Returns the number of decimals used to get its user representation. For example, if `decimals` equals `2`, a balance of `505` tokens should be displayed to a user as `5.05` (`505 / 10 ** 2`). Tokens usually opt for a value of 18, imitating the relationship between Ether and Wei. This is the value {ERC20} uses, unless this function is overridden; NOTE: This information is only used for _display_ purposes: it in no way affects any of the arithmetic of the contract, including {IERC20-balanceOf} and {IERC20-transfer}."
      },
      "decreaseAllowance(address,uint256)": {
        "details": "Atomically decreases the allowance granted to `spender` by the caller. This is an alternative to {approve} that can be used as a mitigation for problems described in {IERC20-approve}. Emits an {Approval} event indicating the updated allowance. Requirements: - `spender` cannot be the zero address. - `spender` must have allowance for the caller of at least `subtractedValue`."
      },
      "getRoleAdmin(bytes32)": {
        "details": "Returns the admin role that controls `role`. See {grantRole} and {revokeRole}. To change a role's admin, use {_setRoleAdmin}."
      },
      "grantRole(bytes32,address)": {
        "details": "Grants `role` to `account`. If `account` had not been already granted `role`, emits a {RoleGranted} event. Requirements: - the caller must have ``role``'s admin role. May emit a {RoleGranted} event."
      },
      "hasRole(bytes32,address)": {
        "details": "Returns `true` if `account` has been granted `role`."
      },
      "increaseAllowance(address,uint256)": {
        "details": "Atomically increases the allowance granted to `spender` by the caller. This is an alternative to {approve} that can be used as a mitigation for problems described in {IERC20-approve}. Emits an {Approval} event indicating the updated allowance. Requirements: - `spender` cannot be the zero address."
      },
      "name()": {
        "details": "Returns the name of the token."
      },
      "renounceRole(bytes32,address)": {
        "details": "Revokes `role` from the calling account. Roles are often managed via {grantRole} and {revokeRole}: this function's purpose is to provide a mechanism for accounts to lose their privileges if they are compromised (such as when a trusted device is misplaced). If the calling account had been revoked `role`, emits a {RoleRevoked} event. Requirements: - the caller must be `account`. May emit a {RoleRevoked} event."
      },
      "revokeRole(bytes32,address)": {
        "details": "Revokes `role` from `account`. If `account` had been granted `role`, emits a {RoleRevoked} event. Requirements: - the caller must have ``role``'s admin role. May emit a {RoleRevoked} event."
      },
      "supportsInterface(bytes4)": {
        "details": "See {IERC165-supportsInterface}."
      },
      "symbol()": {
        "details": "Returns the symbol of the token, usually a shorter version of the name."
      },
      "totalSupply()": {
        "details": "See {IERC20-totalSupply}."
      },
      "transfer(address,uint256)": {
        "details": "See {IERC20-transfer}. Requirements: - `to` cannot be the zero address. - the caller must have a balance of at least `amount`."
      },
      "transferFrom(address,address,uint256)": {
        "details": "See {IERC20-transferFrom}. Emits an {Approval} event indicating the updated allowance. This is not required by the EIP. See the note at the beginning of {ERC20}. NOTE: Does not update the allowance if the current allowance is the maximum `uint256`. Requirements: - `from` and `to` cannot be the zero address. - `from` must have a balance of at least `amount`. - the caller must have allowance for ``from``'s tokens of at least `amount`."
      }
    },
    "version": 1
  },
  "userdoc": {
    "kind": "user",
    "methods": {},
    "version": 1
  },
  "storageLayout": {
    "storage": [
      {
        "astId": 408,
        "contract": "contracts/Calypso/ERC20/Unlimited/CalypsoWETH.sol:CalypsoWETHU",
        "label": "_balances",
        "offset": 0,
        "slot": "0",
        "type": "t_mapping(t_address,t_uint256)"
      },
      {
        "astId": 414,
        "contract": "contracts/Calypso/ERC20/Unlimited/CalypsoWETH.sol:CalypsoWETHU",
        "label": "_allowances",
        "offset": 0,
        "slot": "1",
        "type": "t_mapping(t_address,t_mapping(t_address,t_uint256))"
      },
      {
        "astId": 416,
        "contract": "contracts/Calypso/ERC20/Unlimited/CalypsoWETH.sol:CalypsoWETHU",
        "label": "_totalSupply",
        "offset": 0,
        "slot": "2",
        "type": "t_uint256"
      },
      {
        "astId": 418,
        "contract": "contracts/Calypso/ERC20/Unlimited/CalypsoWETH.sol:CalypsoWETHU",
        "label": "_name",
        "offset": 0,
        "slot": "3",
        "type": "t_string_storage"
      },
      {
        "astId": 420,
        "contract": "contracts/Calypso/ERC20/Unlimited/CalypsoWETH.sol:CalypsoWETHU",
        "label": "_symbol",
        "offset": 0,
        "slot": "4",
        "type": "t_string_storage"
      },
      {
        "astId": 24,
        "contract": "contracts/Calypso/ERC20/Unlimited/CalypsoWETH.sol:CalypsoWETHU",
        "label": "_roles",
        "offset": 0,
        "slot": "5",
        "type": "t_mapping(t_bytes32,t_struct(RoleData)19_storage)"
      }
    ],
    "types": {
      "t_address": {
        "encoding": "inplace",
        "label": "address",
        "numberOfBytes": "20"
      },
      "t_bool": {
        "encoding": "inplace",
        "label": "bool",
        "numberOfBytes": "1"
      },
      "t_bytes32": {
        "encoding": "inplace",
        "label": "bytes32",
        "numberOfBytes": "32"
      },
      "t_mapping(t_address,t_bool)": {
        "encoding": "mapping",
        "key": "t_address",
        "label": "mapping(address => bool)",
        "numberOfBytes": "32",
        "value": "t_bool"
      },
      "t_mapping(t_address,t_mapping(t_address,t_uint256))": {
        "encoding": "mapping",
        "key": "t_address",
        "label": "mapping(address => mapping(address => uint256))",
        "numberOfBytes": "32",
        "value": "t_mapping(t_address,t_uint256)"
      },
      "t_mapping(t_address,t_uint256)": {
        "encoding": "mapping",
        "key": "t_address",
        "label": "mapping(address => uint256)",
        "numberOfBytes": "32",
        "value": "t_uint256"
      },
      "t_mapping(t_bytes32,t_struct(RoleData)19_storage)": {
        "encoding": "mapping",
        "key": "t_bytes32",
        "label": "mapping(bytes32 => struct AccessControl.RoleData)",
        "numberOfBytes": "32",
        "value": "t_struct(RoleData)19_storage"
      },
      "t_string_storage": {
        "encoding": "bytes",
        "label": "string",
        "numberOfBytes": "32"
      },
      "t_struct(RoleData)19_storage": {
        "encoding": "inplace",
        "label": "struct AccessControl.RoleData",
        "members": [
          {
            "astId": 16,
            "contract": "contracts/Calypso/ERC20/Unlimited/CalypsoWETH.sol:CalypsoWETHU",
            "label": "members",
            "offset": 0,
            "slot": "0",
            "type": "t_mapping(t_address,t_bool)"
          },
          {
            "astId": 18,
            "contract": "contracts/Calypso/ERC20/Unlimited/CalypsoWETH.sol:CalypsoWETHU",
            "label": "adminRole",
            "offset": 0,
            "slot": "1",
            "type": "t_bytes32"
          }
        ],
        "numberOfBytes": "64"
      },
      "t_uint256": {
        "encoding": "inplace",
        "label": "uint256",
        "numberOfBytes": "32"
      }
    }
  }
}